:100000000C942A000C943C000C943C000C943C0092
:100010000C943C000C943C000C94F4010C943C00B7
:100020000C943C000C94CF010C943C000C943C00CC
:100030000C943C000C943C000C943C000C943C0050
:100040000C943C000C943C000C943C000C943C0040
:100050000C943C0011241FBECFE5D8E0DEBFCDBF1D
:1000600020E0A0E6B0E001C01D92A437B207E1F79E
:100070000E943E000C94BE020C9400000E9471008D
:1000800080E00E9488002FEF83ED90E321508040B4
:100090009040E1F700C0000081E00E9488002FEF4F
:1000A00083ED90E3215080409040E1F700C00000D4
:1000B00080E00E94B7002FEF83ED90E32150804055
:1000C0009040E1F700C0000081E00E94B7002FEFF0
:1000D00083ED90E3215080409040E1F700C00000A4
:1000E000CFCF41E063E082E00E94E60041E064E0BF
:1000F00082E00E94E60041E065E082E00E94E600C6
:1001000041E066E082E00E94E6000E94C801089596
:10011000882319F08130B1F0089541E063E082E076
:100120000E94570140E064E082E00E94570141E0F4
:1001300065E082E00E94570140E066E082E00E94B4
:100140005701089541E064E082E00E94570140E0D9
:1001500063E082E00E94570141E066E082E00E9495
:10016000570140E065E082E00E945701089588232E
:1001700019F08130B1F0089541E063E082E00E941F
:10018000570140E064E082E00E94570140E065E0F2
:1001900082E00E94570140E066E082E00E94570141
:1001A000089540E064E082E00E94570140E063E08F
:1001B00082E00E94570140E066E082E00E94570121
:1001C00041E065E082E00E94570108954423B9F1BF
:1001D000413009F06BC0813089F028F08230C9F0DD
:1001E000833011F108952AB381E090E002C0880FB6
:1001F000991F6A95E2F7822B8ABB089527B381E0A5
:1002000090E002C0880F991F6A95E2F7822B87BBA6
:10021000089524B381E090E002C0880F991F6A9589
:10022000E2F7822B84BB089521B381E090E002C005
:10023000880F991F6A95E2F7822B81BB0895813060
:1002400091F028F08230D9F0833029F108952AB353
:1002500081E090E002C0880F991F6A95E2F78095CF
:1002600082238ABB089527B381E090E002C0880F03
:10027000991F6A95E2F78095822387BB089524B37E
:1002800081E090E002C0880F991F6A95E2F780959F
:10029000822384BB089521B381E090E002C0880FDF
:1002A000991F6A95E2F78095822381BB08954423C4
:1002B000B9F1413009F06BC0813089F028F082300B
:1002C000C9F0833011F108952BB381E090E002C0B2
:1002D000880F991F6A95E2F7822B8BBB089528B38C
:1002E00081E090E002C0880F991F6A95E2F7822BA7
:1002F00088BB089525B381E090E002C0880F991F64
:100300006A95E2F7822B85BB089522B381E090E0E5
:1003100002C0880F991F6A95E2F7822B82BB08956D
:10032000813091F028F08230D9F0833029F108959E
:100330002BB381E090E002C0880F991F6A95E2F725
:10034000809582238BBB089528B381E090E002C0A2
:10035000880F991F6A95E2F78095822388BB0895DC
:1003600025B381E090E002C0880F991F6A95E2F7FB
:100370008095822385BB089522B381E090E002C07E
:10038000880F991F6A95E2F78095822382BB0895B2
:1003900087B3886087BB83B7886683BF08951F9241
:1003A0000F920FB60F9211248F939F93AF93BF9329
:1003B0008091700090917100A0917200B0917300D3
:1003C0000196A11DB11D8093700090937100A093C0
:1003D0007200B0937300BF91AF919F918F910F9076
:1003E0000FBE0F901F9018951F920F920FB60F928D
:1003F00011242F933F934F935F936F937F938F932A
:100400009F93AF93BF93EF93FF9380916000909180
:100410006100A0916200B09163000196A11DB11D21
:100420008093600090936100A0936200B09363009A
:100430008091600090916100A0916200B091630092
:100440000197A105B105C1F41092700010927100DE
:10045000109272001092730086B597B5A0E0B0E0DC
:1004600080936C0090936D00A0936E00B0936F002A
:100470008EB58F7B8EBD57C08091600090916100DA
:10048000A0916200B09163000297A105B10501F54A
:10049000E6B5F7B52091700030917100409172007F
:1004A00050917300AFEFBFEF0E94B302DC01CB01AC
:1004B0008E0F9F1FA11DB11D80936800909369004E
:1004C000A0936A00B0936B008EB580648EBD2BC084
:1004D0008091600090916100A0916200B0916300F2
:1004E0000397A105B105F9F4E6B5F7B520917000C1
:1004F000309171004091720050917300AFEFBFEFE7
:100500000E94B302DC01CB018E0F9F1FA11DB11D04
:100510008093640090936500A0936600B093670099
:1005200089B78F7D89BFFF91EF91BF91AF919F9167
:100530008F917F916F915F914F913F912F910F908C
:100540000FBE0F901F901895A29FB001B39FC001DE
:10055000A39F700D811D1124911DB29F700D811DEF
:100560001124911D08950E94A402A59F900DB49F8F
:10057000900DA49F800D911D11240895F894FFCF34
:00000001FF
