S01500004175746F6E6F6D6F75734361722E73726563BF
S11300000C942A000C9447000C9447000C9447006D
S11300100C9447000C9447000C9489010C944700FD
S11300200C9447000C9449000C9447000C9447002E
S11300300C9447000C9447000C9447000C94470020
S11300400C9447000C9447000C9447000C94470010
S11300500C94470011241FBECFE5D8E0DEBFCDBF0E
S113006010E0A0E6B0E0E0EDF4E002C005900D92EF
S1130070A036B107D9F720E0A0E6B0E001C01D9298
S1130080A637B207E1F70E9460000C9466020C9454
S113009000001F920F920FB60F9211248F939F931B
S11300A0809160009091610001969093610080932B
S11300B060009F918F910F900FBE0F901F90189525
S11300C00E946B0080E00E9481008AE00E94A200EE
S11300D00E94AA00FFCF41E061E082E00E94AC00F0
S11300E041E062E082E00E94AC0041E063E082E033
S11300F00E94AC0041E064E082E00E94AC000C94F9
S11301007601882319F0813049F0089541E063E0D5
S113011082E00E94110140E064E007C041E064E035
S113012082E00E94110140E063E082E00E9411013C
S113013041E061E082E00E94110140E062E082E07F
S11301400C941101880F982F990F990F890F90E043
S11301500C947B010C948501442379F1413009F01E
S11301605FC0813079F028F08230A9F08330E1F06B
S113017008952AB381E090E001C0880F6A95EAF7F8
S1130180822B2CC027B381E090E001C0880F6A95D0
S1130190EAF7822B2EC024B381E090E001C0880FDF
S11301A06A95EAF7822B30C021B381E090E001C068
S11301B0880F6A95EAF7822B32C0813089F028F0E3
S11301C08230C9F0833011F108952AB381E090E0C0
S11301D001C0880F6A95EAF7809582238ABB089547
S11301E027B381E090E001C0880F6A95EAF7809513
S11301F0822387BB089524B381E090E001C0880F77
S11302006A95EAF78095822384BB089521B381E03F
S113021090E001C0880F6A95EAF78095822381BB3C
S11302200895442379F1413009F05FC0813079F0B9
S113023028F08230A9F08330E1F008952BB381E0F7
S113024090E001C0880F6A95EAF7822B2CC028B38E
S113025081E090E001C0880F6A95EAF7822B2EC0F6
S113026025B381E090E001C0880F6A95EAF7822BFC
S113027030C022B381E090E001C0880F6A95EAF7AC
S1130280822B32C0813089F028F08230C9F083306B
S113029011F108952BB381E090E001C0880F6A95B5
S11302A0EAF7809582238BBB089528B381E090E020
S11302B001C0880F6A95EAF78095822388BB089568
S11302C025B381E090E001C0880F6A95EAF7809534
S11302D0822385BB089522B381E090E001C0880F9A
S11302E06A95EAF78095822382BB0895BB9A83B707
S11302F0886683BF089520E0982F822F64E670E01B
S11303000E94380261506CBF089583B7856083BF33
S113031008951F920F920FB60F9211242F933F93BB
S11303204F935F936F937F938F939F93AF93BF93F9
S1130330EF93FF938091620090916300A091640019
S1130340B09165000196A11DB11D80936200909348
S11303506300A0936400B093650080916200909163
S11303606300A0916400B09165000197A105B105F7
S1130370B9F41092720010927300109274001092EB
S1130380750086B597B5A0E0B0E080936E009093B9
S11303906F00A0937000B09371008EB58F7B2AC05C
S11303A08091620090916300A0916400B091650017
S11303B00297A105B10501F5E6B5F7B520917200E4
S11303C0309173004091740050917500AFEFBFEF0E
S11303D00E944C02DC01CB018E0F9F1FA11DB11D99
S11303E080936A0090936B00A0936C00B0936D00AF
S11303F08EB580648EBD2BC08091620090916300A5
S1130400A0916400B09165000397A105B105F9F4CA
S1130410E6B5F7B5209172003091730040917400F5
S113042050917500AFEFBFEF0E944C02DC01CB018D
S11304308E0F9F1FA11DB11D8093660090936700CE
S1130440A0936800B093690089B78F7D89BFFF913D
S1130450EF91BF91AF919F918F917F916F915F9138
S11304604F913F912F910F900FBE0F901F901895B1
S1130470AA1BBB1B51E107C0AA1FBB1FA617B707C6
S113048010F0A61BB70B881F991F5A95A9F78095E2
S11304909095BC01CD0108950E945702A59F900D2F
S11304A0B49F900DA49F800D911D11240895A29FC7
S11304B0B001B39FC001A39F700D811D1124911D34
S11304C0B29F700D811D1124911D0895F894FFCFE2
S9030000FC
